{
  "contractName": "Wallet",
  "abi": [
    {
      "inputs": [],
      "stateMutability": "nonpayable",
      "type": "constructor"
    },
    {
      "inputs": [],
      "name": "deposit",
      "outputs": [],
      "stateMutability": "payable",
      "type": "function"
    },
    {
      "inputs": [
        {
          "internalType": "address payable",
          "name": "_to",
          "type": "address"
        },
        {
          "internalType": "uint256",
          "name": "_amount",
          "type": "uint256"
        }
      ],
      "name": "transfer",
      "outputs": [],
      "stateMutability": "nonpayable",
      "type": "function"
    },
    {
      "inputs": [],
      "name": "walletBalance",
      "outputs": [
        {
          "internalType": "uint256",
          "name": "",
          "type": "uint256"
        }
      ],
      "stateMutability": "view",
      "type": "function"
    }
  ],
  "bytecode": "0x608060405234801561001057600080fd5b50336000806101000a81548173ffffffffffffffffffffffffffffffffffffffff021916908373ffffffffffffffffffffffffffffffffffffffff16021790555061027d806100606000396000f3fe6080604052600436106100345760003560e01c8063a9059cbb14610039578063cd0a314b14610062578063d0e30db01461008d575b600080fd5b34801561004557600080fd5b50610060600480360381019061005b91906101dd565b610097565b005b34801561006e57600080fd5b5061007761013a565b604051610084919061022c565b60405180910390f35b610095610142565b005b60008054906101000a900473ffffffffffffffffffffffffffffffffffffffff1673ffffffffffffffffffffffffffffffffffffffff163373ffffffffffffffffffffffffffffffffffffffff16146100ef57600080fd5b8173ffffffffffffffffffffffffffffffffffffffff166108fc829081150290604051600060405180830381858888f19350505050158015610135573d6000803e3d6000fd5b505050565b600047905090565b565b600080fd5b600073ffffffffffffffffffffffffffffffffffffffff82169050919050565b600061017482610149565b9050919050565b61018481610169565b811461018f57600080fd5b50565b6000813590506101a18161017b565b92915050565b6000819050919050565b6101ba816101a7565b81146101c557600080fd5b50565b6000813590506101d7816101b1565b92915050565b600080604083850312156101f4576101f3610144565b5b600061020285828601610192565b9250506020610213858286016101c8565b9150509250929050565b610226816101a7565b82525050565b6000602082019050610241600083018461021d565b9291505056fea2646970667358221220a817faef01243a1c6e714f97e480739976292fdba40ac33ae1d3cf1f4457411c64736f6c634300080f0033",
  "immutableReferences": {},
  "source": "pragma solidity 0.8.15;\n\ncontract Wallet {\n\n    address owner;\n\n\n  constructor () {\n    owner = msg.sender;\n  }\n    modifier onlyOwner {\n        require (msg.sender ==owner);\n        _;\n    }\n\n    function deposit () external payable {\n\n    }\n\n    function transfer (address payable _to, uint _amount) external onlyOwner {\n        _to.transfer(_amount);\n\n    }\n\n    function walletBalance () public view returns (uint) {\n        return address(this).balance;\n    }\n\n\n\n\n\n}",
  "sourcePath": "/Users/petartodorov/Desktop/coding/solidity/Dapp30/ether wallet/contracts/Wallet.sol",
  "compiler": {
    "name": "solc",
    "version": "0.8.15+commit.e14f2714.Emscripten.clang"
  },
  "schemaVersion": "3.4.8",
  "updatedAt": "2022-08-16T11:05:08.036Z",
  "devdoc": {
    "kind": "dev",
    "methods": {},
    "version": 1
  },
  "userdoc": {
    "kind": "user",
    "methods": {},
    "version": 1
  }
}