{
  "contractName": "Wallet",
  "abi": [
    {
      "inputs": [],
      "stateMutability": "nonpayable",
      "type": "constructor"
    },
    {
      "inputs": [],
      "name": "deposit",
      "outputs": [],
      "stateMutability": "payable",
      "type": "function",
      "payable": true
    },
    {
      "inputs": [
        {
          "internalType": "address payable",
          "name": "_to",
          "type": "address"
        },
        {
          "internalType": "uint256",
          "name": "_amount",
          "type": "uint256"
        }
      ],
      "name": "transfer",
      "outputs": [],
      "stateMutability": "nonpayable",
      "type": "function"
    },
    {
      "inputs": [],
      "name": "walletBalance",
      "outputs": [
        {
          "internalType": "uint256",
          "name": "",
          "type": "uint256"
        }
      ],
      "stateMutability": "view",
      "type": "function",
      "constant": true
    }
  ],
  "bytecode": "0x608060405234801561001057600080fd5b50336000806101000a81548173ffffffffffffffffffffffffffffffffffffffff021916908373ffffffffffffffffffffffffffffffffffffffff160217905550610356806100606000396000f3fe6080604052600436106100345760003560e01c8063a9059cbb14610039578063cd0a314b14610062578063d0e30db01461008d575b600080fd5b34801561004557600080fd5b50610060600480360381019061005b9190610213565b610097565b005b34801561006e57600080fd5b50610077610170565b6040516100849190610262565b60405180910390f35b610095610178565b005b60008054906101000a900473ffffffffffffffffffffffffffffffffffffffff1673ffffffffffffffffffffffffffffffffffffffff163373ffffffffffffffffffffffffffffffffffffffff1614610125576040517f08c379a000000000000000000000000000000000000000000000000000000000815260040161011c90610300565b60405180910390fd5b8173ffffffffffffffffffffffffffffffffffffffff166108fc829081150290604051600060405180830381858888f1935050505015801561016b573d6000803e3d6000fd5b505050565b600047905090565b565b600080fd5b600073ffffffffffffffffffffffffffffffffffffffff82169050919050565b60006101aa8261017f565b9050919050565b6101ba8161019f565b81146101c557600080fd5b50565b6000813590506101d7816101b1565b92915050565b6000819050919050565b6101f0816101dd565b81146101fb57600080fd5b50565b60008135905061020d816101e7565b92915050565b6000806040838503121561022a5761022961017a565b5b6000610238858286016101c8565b9250506020610249858286016101fe565b9150509250929050565b61025c816101dd565b82525050565b60006020820190506102776000830184610253565b92915050565b600082825260208201905092915050565b7f4f6e6c7920746865206f776e65722063616e20696e766f6b652074686973206660008201527f6e2e000000000000000000000000000000000000000000000000000000000000602082015250565b60006102ea60228361027d565b91506102f58261028e565b604082019050919050565b60006020820190508181036000830152610319816102dd565b905091905056fea2646970667358221220c6ae915885e43971823e7b0215c6140345970e778392abfec4b632709f47cca364736f6c634300080f0033",
  "immutableReferences": {},
  "source": "pragma solidity 0.8.15;\n\ncontract Wallet {\n\n    address owner;\n\n\n  constructor () {\n    owner = msg.sender;\n  }\n    modifier onlyOwner {\n        require (msg.sender ==owner, \"Only the owner can invoke this fn.\");\n        _;\n    }\n\n    function deposit () external payable {\n\n    }\n\n    function transfer (address payable _to, uint _amount) external onlyOwner {\n        _to.transfer(_amount);\n\n    }\n\n    function walletBalance () public view returns (uint) {\n        return address(this).balance;\n    }\n\n\n\n\n\n}",
  "sourcePath": "/Users/petartodorov/Desktop/coding/solidity/Dapp30/ether wallet/contracts/Wallet.sol",
  "compiler": {
    "name": "solc",
    "version": "0.8.15+commit.e14f2714.Emscripten.clang"
  },
  "schemaVersion": "3.4.8",
  "updatedAt": "2022-08-16T11:40:48.118Z",
  "networkType": "ethereum",
  "devdoc": {
    "kind": "dev",
    "methods": {},
    "version": 1
  },
  "userdoc": {
    "kind": "user",
    "methods": {},
    "version": 1
  }
}